:020000040800F2
:1000000078060020810100087309000871090008C2
:1000100000000000000000000000000000000000E0
:100020000000000000000000000000007709000848
:1000300000000000000000007509000879090008B0
:100040009301000893010008930100089301000840
:100050009301000893010008930100089301000830
:100060009301000893010008930100089301000820
:100070009301000893010008930100089301000810
:100080009301000893010008930100089301000800
:1000900093010008930100089301000893010008F0
:1000A00093010008930100089301000893010008E0
:1000B00093010008930100089301000893010008D0
:1000C00000F002F800F04CF812A030C808382418EC
:1000D0002D18AC4201D100F043F80FCCA246AB463C
:1000E0000CA730CF2D1B083F3F197C427F1E544484
:1000F0002D090426F441641EAC4201D300F030F80F
:100100000126334200D0FB1A3343984754465D46DC
:10011000DFE70000F011000010120000103A02D3D7
:1001200078C878C1FAD8520701D330C830C101D598
:1001300004680C6070470000704700000023002432
:1001400000250026103A01D378C1FBD8520700D30E
:1001500030C100D50B6070471FB51FBD10B510BD75
:1001600000F04DF81146FFF7F7FF00F00BFC00F030
:1001700065F803B4FFF7F2FF03BC00F06BF8000072
:100180000748804707480047FEE7FEE7FEE7FEE72F
:10019000FEE7FEE704480549054A064B70470000A4
:1001A00081090008C10000087800002078060020BE
:1001B000780200207802002001E004C0091F042911
:1001C000FBD28B0701D50280801CC90700D00270CA
:1001D000704700290BD0C30702D00270401C491E93
:1001E000022904D3830702D50280801C891EE3E71D
:1001F0000022EEE70022DFE7704770477047754640
:1002000000F024F8AE46050069465346C008C00019
:10021000854618B020B5FFF7BDFF60BCB646002686
:100220000027C0C5C0C5C0C5C0C5C0C5C0C5C0C504
:10023000C0C5403D490849008D46704710B5044689
:10024000C046C0462046FFF794FF10BD00487047E7
:100250001000002001491820ABBEFEE72600020076
:1002600070470000B0B5044600F00CF80546601C6D
:1002700002D01A480078041900F004F8401BA0428C
:10028000FAD3B0BD054800687047C04613480078EF
:1002900002490A68101808607047C04670000020C4
:1002A00070B504467D20C0000C4E317800F0F2FE9F
:1002B00001467748006800F0EDFE00F03FFB0125A5
:1002C000032C08D8002806D10025E84321462A46F9
:1002D00000F006F87460284670BDC046000000209B
:1002E000002805D40322034693430A4A9A1803E0E0
:1002F0000C220240064BD2188007C00E8901C9B2F9
:100300008140FF2383401068984308431060704782
:1003100014ED00E000E400E0F0B581B0002846D024
:100320000446534A1368012003408B4208D21368E5
:100330000126B3430B431360126832408A4237D11F
:10034000009121688A074B4B10D54A0706D5072232
:1003500012021B681343474A1360464B1A68F02386
:100360009A43A3681343434A1360424BC90722D1FF
:100370003F49086801263040009A904205D9086834
:10038000B04308600868C00712D12078400706D53E
:100390000720000219688143E068084318601A6862
:1003A0001007810F3548022912D2044650E0012679
:1003B000304601B0F0BD616803290DD01A1F022933
:1003C0000FD0012912D1126892030646F0D511E030
:1003D000032926D12A4C3BE01A6B92030646E7D547
:1003E00008E0126892010646E2D503E0126892071F
:1003F0000646DDD518680326B04308431860FFF7AA
:1004000041FF07461C4D1B4B18680C2101406068DA
:1004100080008142ACD0FFF735FFC01BA842F2D963
:10042000C6E70321CB031349896A0F240C40154901
:10043000095D94021A40240F134D2C5D9A4202D09C
:1004400033049A4200E00E4800F024FE4443094B76
:1004500018680006000F0D49085CC4400C48046091
:100460000320FFF71DFF0026304601B0F0BDC04657
:1004700000200240041002408813000000127A009D
:10048000006CDC02AA1200089A1200088A12000806
:1004900008000020F0B587B004460120002C00D1F0
:1004A00045E204902078C007F94E05940CD071689D
:1004B0000C200140042900D090E03068800303D56F
:1004C0006068002800D120E12078800721D570687D
:1004D0000007800F0ED070680C210140082900D061
:1004E0009DE00320C003716801400120C0038142E8
:1004F00000D094E030688007059C03D5E0680128AF
:1005000000D002E13068F82188432169C900014325
:100510003160059C2078000724D42078400737D428
:100520002078C00600D4D3E005984069411D00D171
:10053000C2E0012800D030E1706B042101437163F7
:10054000706B012101437163FFF79CFE0546706BE0
:10055000800700D5B4E0FFF795FE411B0320022978
:10056000F5D9E4E1706AE169002900D181E0012157
:1005700008437062FFF786FE0546706A8007CCD498
:10058000FFF780FE401B0228F7D9032007B0F0BD1B
:10059000012003900107F0690840029006D1F0693C
:1005A0000843F061F0690840069006980191E14F18
:1005B0003868C0054AD4039804023868204338607C
:1005C000FFF760FE0546386820423FD1FFF75AFE2C
:1005D000401B6428F7D9032007B0F0BD71680140C3
:1005E000082908D10320C0037168014001200004DC
:1005F000814200D161E7616801204704002900D1F0
:1006000017E1052900D12BE1012900D12CE10104DA
:1006100032688A43326081043068884327E1306859
:10062000059CE168002936D0012108433060FFF7BE
:1006300029FE05463068800700D563E7FFF722FEF4
:10064000401B0228F6D9032007B0F0BD059880684A
:10065000002800D1B6E0052800D1C9E0012800D16A
:10066000CAE0306A039988433062306A04218843C3
:10067000C5E0012188437062FFF704FE0546706AF9
:10068000800700D449E7FFF7FDFD401B0228F6D99B
:10069000032007B0F0BD012188433060FFF7F2FD71
:1006A00005463068800700D433E7FFF7EBFD411BB8
:1006B00003200229F5D93AE1706B04218843706365
:1006C000706BF821884305998969C90001437163FA
:1006D0000598007880060BD571680C2001400C2924
:1006E00039D1706B800303D50598006A01280CD1BD
:1006F0000598446A002C00D1E1E070680C210140AB
:10070000082905D1012C00D0C4E0049807B0F0BD41
:100710000120020631680492914331604706FFF7D9
:10072000B1FD0546022C0BD1049C3068384200D143
:10073000DEE0FFF7A7FD411B03200229F5D9F6E013
:100740003068384200D1BAE0FFF79CFD411B03201E
:100750000229F5D9EBE071680140082905D1032091
:10076000C003716801408142BBD0706B0599096A72
:10077000002900D1A9E001210A04104370634C0450
:10078000FFF780FD0546706B2042B1D1FFF77AFD7F
:10079000411B03200229F6D9C9E0706B04210143F3
:1007A0007163706B012188437063FFF76BFD054631
:1007B000706B80078CD5FFF765FD411B0320022974
:1007C000F6D9B4E0306A039988433062306A042174
:1007D00088433062584CFFF755FD0546306A800764
:1007E0001DD5FFF74FFD411B0320A142F6D99EE026
:1007F000306A042101433162306A03990843306250
:100800004D4CFFF73FFD0546306A800707D4FFF7E0
:1008100039FD401BA042F7D9032007B0F0BD029874
:100820000028059C00D07BE6F06901998843F061BF
:1008300076E6010432688A4332608004316881437D
:100840003160FFF71FFD0546059C3068384200D136
:100850003AE6FFF717FD411B03206429F5D966E04E
:10086000810432680A433260010430680843306012
:10087000FFF708FD05463068384200D024E6FFF750
:1008800001FD401B6428F6D9032007B0F0BDC04627
:10089000001002400320C20370680240F16A059C08
:1008A000A36A9A42049D0DD10F221140236B9942F5
:1008B00008D191040840E16A8842284637D10020D7
:1008C00007B0F0BD284607B0F0BD01210A049043EF
:1008D00070634C04FFF7D6FC0546706B204200D1D4
:1008E00006E7FFF7CFFC411B03200229F5D91EE0E4
:1008F000F06A0F218843059A116B0143F1627B2056
:10090000C00371688143D06A0843916A01437160F2
:10091000306820433060FFF7B5FC04463068384249
:10092000CDD1FFF7AFFC011B03200229F6D907B098
:10093000F0BDC0460070004088130000401E010E4C
:1009400001D0012070470749074A506007480368F3
:100950000B4003218907591801600020906007218E
:1009600011607047FFFFFF0010E000E020ED00E0A5
:10097000FEE7FEE77047704780B5FFF787FC80BD54
:1009800070470000A2B015AE301D30211091FFF766
:1009900031FC00200C901E9010251995012418940C
:1009A000022715973046FFF775FD002803D0EFF3B7
:1009B000108072B6FEE70F970B950C991491139166
:1009C00012910727119711A8FFF7A6FC002803D062
:1009D000EFF3108072B6FEE7E2040892CE49086891
:1009E000104308600B466005CC4D2968014329601F
:1009F0002005296881432960E005296801432960B1
:100A0000A00529688143296060062968014329609F
:100A10002106029128688843286021022646686AD8
:100A20000D91084368627802696A81436962210313
:100A3000686A08430C46059168627803696A8143D5
:100A400069623204686A1043039268627804696AD2
:100A500081436962B1040091986808439860B04B83
:100A6000184610384521016018461C3801680423D7
:100A70000A9319430160016808230E93194301602A
:100A80000168202306931943016001683143016026
:100A90007003334629688143296028682043286011
:100AA0002868A04908402860B003296801432960EC
:100AB00071040191049628688843286028681043CF
:100AC000286028680899884328602868009E304379
:100AD00028606868402108918843686068688021C0
:100AE00007918843686068688F49084068605802C9
:100AF000696881436960A8688C4B1840A860A86841
:100B00008B4C2040A860A8688A4A1040A860A8685A
:100B100089490840A860E8681840E860E868204013
:100B2000E860E8681040E860E8680840E8607A49F2
:100B30000868029A104308600868019A1043086028
:100B40000868304308600920C20610680699084307
:100B5000106003200102136A0B4313620A99C94310
:100B600053680B4053601368744C1C431460136A41
:100B7000734C1C431462536888241C435460714AAC
:100B800013680E9C23431360136A109C2343136263
:100B900053680F9E334353606B4D2A680A402A60A6
:100BA0000F210A072B6893432B6009062A688A43A2
:100BB0002A6029680B9C214329606968B1436960F8
:100BC0002968C0220A432A602968069A914329604D
:100BD00040032968014329602868059988432860F3
:100BE00028680399884328607F20400429680143CE
:100BF000296028684B490840286028680E99884376
:100C00002860A86A0A990843A8629120C100286A4E
:100C10000E910843286228694C49084028612868D9
:100C2000049908432860099709E03F480140696139
:100C300069690798814369616420FFF713FB4248A3
:100C40003E4607460068A043386001252846FFF766
:100C500009FB386820433860B86A0A990843B862CB
:100C6000386A0E9908433862386B30430F993863FD
:100C7000F868C00723D0B8682843B860B86808434C
:100C8000B860F868C0071AD0B8682843B860B86878
:100C90000843B860F868C00711D0B8682843B86046
:100CA000B8680843B860F868C00708D0B868284337
:100CB000B860B8680843B860F868C007DBD17E6BDD
:100CC00015AC0A213046109100F006FA0246ED4DAF
:100CD000F735284650433018ED4940182327C05DAA
:100CE000207030460930132832D36421304616462E
:100CF00000F0F2F93246064645435019E4494018DF
:100D0000C05D6070A41C104609301328D9D2611E42
:100D1000164620461EE0C046141002400008004857
:100D20001C480040FF7FFFFFFFFEFFFFFFCFFFFFDC
:100D3000FF3FFFFFFFFFFCFFFFFFF3FF808000008E
:100D400000300030000400480040024073FBFFFF09
:100D5000601C21460C9B0B9CC84D002E02D52D22F9
:100D60000270881C0F9E0370401E15A98842099FBF
:100D700020D915A902780B7803700A70401E491C0F
:100D8000814217D202780B7803700A70491C401E0A
:100D900081420FD202780B7803700A70491C401E02
:100DA000814207D202780B7803700A70491C401EFA
:100DB0008142DFD315A800780028B14A00D113E1A1
:100DC0001168090608D41168090605D411680906D6
:100DD00002D411680906F3D5908115A8407800283F
:100DE00000D101E11168090608D41168090605D48B
:100DF0001168090602D411680906F3D5908115A877
:100E00008078002800D1EFE01168090608D4116845
:100E1000090605D41168090602D411680906F3D53C
:100E2000908115A8C078002800D1DDE0116809067E
:100E300008D41168090605D41168090602D411689E
:100E40000906F3D5908115A80079002800D1CBE0E0
:100E50001168090608D41168090605D41168090645
:100E600002D411680906F3D5908115A840790028AD
:100E700000D1B9E01168090608D41168090605D443
:100E80001168090602D411680906F3D5908115A8E6
:100E90008079002800D1A7E01168090608D41168FC
:100EA000090605D41168090602D411680906F3D5AC
:100EB000908115A8C079002800D195E01168090635
:100EC00008D41168090605D41168090602D411680E
:100ED0000906F3D5908115A8007A002800D183E097
:100EE0001168090608D41168090605D411680906B5
:100EF00002D411680906F3D5908115A8407A00281C
:100F000072D01168090608D41168090605D4116861
:100F1000090602D411680906F3D5908115A8807AD4
:100F2000002861D01168090608D41168090605D4A3
:100F30001168090602D411680906F3D5908115A835
:100F4000C07A002850D01168090608D41168090633
:100F500005D41168090602D411680906F3D59081F9
:100F600015A8007B00283FD01168090608D4116835
:100F7000090605D41168090602D411680906F3D5DB
:100F8000908115A8407B00282ED01168090608D44E
:100F90001168090605D41168090602D4116809060A
:100FA000F3D5908115A8807B00281DD01168090613
:100FB00008D41168090605D41168090602D411681D
:100FC0000906F3D5908115A8C07B00280CD01168C4
:100FD000090608D41168090605D41168090602D467
:100FE00011680906F3D590811068000608D41068CE
:100FF000000605D41068000602D410680006F3D578
:101000000D2090811068000608D41068000605D4F1
:101010001068000602D410680006F3D5109890817D
:101020001949086830430860486B18490A18A43207
:1010300069690D9B5A339A4214D2089A1143696127
:1010400069690E9B1A46A532904200D3EDE5079AD6
:101050001143696169691A468C3290420AD20D982F
:101060000143E8E508988143696168690799884305
:101070006861696903480140DDE5C0460008004831
:101080001C480040FFFEFFFF0040024073FBFFFFD3
:10109000BA12000843088B421AD3002203098B427C
:1010A00079D3030A8B425ED3030B8B4242D3030CEA
:1010B0008B4227D30902FF2212BA030C8B4202D3C0
:1010C0001212090203D0030B8B4233D31AE0D3E090
:1010D000411A8041401C704703460B4371D44308BA
:1010E0008B42F5D3002203098B4254D3030A8B426F
:1010F00039D3030B8B421DD3030C8B4202D394468E
:101100006EE0090AC30B8B4201D3CB03C01A5241D4
:10111000830B8B4201D38B03C01A5241430B8B428A
:1011200001D34B03C01A5241030B8B4201D30B0373
:10113000C01A5241C30A8B4201D3CB02C01A52419A
:10114000830A8B4201D38B02C01A5241430A8B425D
:1011500001D34B02C01A5241030A8B4201D30B0246
:10116000C01A5241CDD2C3098B4201D3CB01C01A60
:10117000524183098B4201D38B01C01A524143096A
:101180008B4201D34B01C01A524103098B4201D358
:101190000B01C01A5241C3088B4201D3CB00C01AC5
:1011A000524183088B4201D38B00C01A524143083D
:1011B0008B4201D34B00C01A5241411A52411000D8
:1011C0007047CA0F00D04942031000D34042534039
:1011D00000229C4603098B422DD3030A8B4212D373
:1011E0008901FC2212BA030A8B420CD389019211A5
:1011F0008B4208D3890192118B4204D3890137D0E5
:10120000921100E08909C3098B4201D3CB01C01AB6
:10121000524183098B4201D38B01C01A52414309C9
:101220008B4201D34B01C01A524103098B4201D3B7
:101230000B01C01A5241C3088B4201D3CB00C01A24
:10124000524183088B4201D38B00C01A5241D9D23C
:1012500043088B4201D34B00C01A5241411A00D2BD
:1012600001465241104663465B1000D3404270472E
:1012700063465B1000D3404201B50021004201D01B
:10128000C9430846C046C04602BD00000000000039
:10129000000001020304060708090203040506070B
:1012A00008090A0B0C0D0E0F1010010203040506AD
:1012B0000708090A0B0C0D0E0F107A7978777675EE
:1012C00074737271706F6E6D6C6B6A696867666556
:1012D0006463626139383736353433323130313214
:1012E00033343536373839616263646566676869F7
:1012F0006A6B6C6D6E6F70717273747576777879D6
:101300007A000000281300080000002010000000F0
:101310001C010008381300081000002068060000B7
:101320003C01000800000000010000000400000073
:0813300000127A000000000029
:04000005080000C12E
:00000001FF
